:1000000040C064C063C062C061C060C05FC05EC009
:100010005DC08DC35BC05AC059C058C057C056C0E0
:1000200055C054C053C000000000370034003100F8
:1000300000000000380035003200000000003600EB
:100040003300300004040404040404040202020225
:10005000020203030303030301020408102040808B
:100060000102040810200102040810200000000012
:100070000000000000030406000000000000000073
:100080006C0511241FBECFE5D4E0DEBFCDBF10E06C
:10009000A0E6B0E0ECE9FBE002C005900D92AE39BD
:1000A000B107D9F720E0AEE9B0E001C01D92AB3C4A
:1000B000B207E1F710E0C1E4D0E003C02197FE01F0
:1000C00055D5C034D107D1F77CD366C599CFCF922F
:1000D000DF92EF92FF920F931F93CF93DF936C0108
:1000E0007A018B01C0E0D0E0CE15DF0589F0D801A0
:1000F0006D918D01D601ED91FC910190F081E02D83
:10010000C6010995892B11F47E0102C02196ECCF1E
:10011000C701DF91CF911F910F91FF90EF90DF907A
:10012000CF900895843039F0863049F0833051F40F
:100130008FB58F7702C08FB58F7D8FBD089585B540
:100140008F7D85BD0895CF93DF93282F30E0F9018F
:10015000E459FF4F8491F901E85AFF4FD491F90116
:10016000EC5BFF4FC491CC2389F08111DBDFEC2FD6
:10017000F0E0EE0FFF1FE65CFF4FA591B491EC910C
:10018000ED2381E090E021F480E002C080E090E087
:10019000DF91CF9108951F93CF93DF93282F30E005
:1001A000F901E459FF4F8491F901E85AFF4FD491C6
:1001B000F901EC5BFF4FC491CC23C1F0162F8111E4
:1001C000B1DFEC2FF0E0EE0FFF1FE05DFF4FA591D8
:1001D000B4918FB7F894111105C09C91ED2FE09563
:1001E000E92302C0EC91ED2BEC938FBFDF91CF910F
:1001F0001F910895CF93DF9390E0FC01E85AFF4FE1
:100200002491FC01EC5BFF4F8491882361F190E025
:10021000880F991FFC01EA5DFF4FC591D491FC0145
:10022000E05DFF4FA591B491611109C09FB7F894AB
:100230008881209582238883EC912E230BC0623025
:1002400061F49FB7F8943881822F80958323888347
:10025000EC912E2B2C939FBF06C08FB7F894E881AA
:100260002E2B28838FBFDF91CF9108951F93CF93BB
:10027000DF93182FEB0161E0BDDF209711F460E000
:1002800004C0CF3FD10531F461E0812FDF91CF91E0
:100290001F9181CFE12FF0E0E459FF4FE491E4306A
:1002A00051F0E63071F0E33089F48FB580688FBD8E
:1002B000DBBDCABD0FC08FB580628FBDD9BDC8BDC3
:1002C00009C085B5806285BDC3BD04C0C038D105F5
:1002D000DCF6D5CFDF91CF911F9108958E3008F0D5
:1002E0008E508770806487B9369A3699FECF84B174
:1002F00025B190E0922B08959FB7F8944091A30008
:100300005091A4006091A5007091A60082B708B634
:1003100000FE06C08F3F21F04F5F5F4F6F4F7F4F52
:100320009FBF762F652F542F44279A01AB01280FCA
:10033000311D411D511DA5E1B0E00ED408958F92ED
:100340009F92AF92BF92CF92DF92EF92FF926B019A
:100350007C01D2DF4B015C01C114D104E104F10442
:10036000E9F0CADFDC01CB0188199909AA09BB09A8
:10037000883E9340A105B10578F321E0C21AD10867
:10038000E108F10888EE880E83E0981EA11CB11CDC
:10039000C114D104E104F10421F7DECFFF90EF9006
:1003A000DF90CF90BF90AF909F908F90089500976F
:1003B00061F0FC0101900020E9F73197AF01481B83
:1003C000590BBC0183EB90E082CE80E090E0089571
:1003D0008F929F92AF92BF92CF92DF92EF92FF9255
:1003E0000F931F93CF93DF93CDB7DEB7A1970FB6CF
:1003F000F894DEBF0FBECDBF6C01990FEE08FF0869
:10040000F7FE2FC0E091B300F091B4000190F081AD
:10041000E02D6DE283EB90E009958C0122273327D4
:10042000A9012C193D094E095F0919A2CE01819637
:100430007C019AE0892E912CA12CB12CCA01B90122
:10044000A501940167D3605DF70162937F012115D7
:1004500031054105510591F7CF01A9DF800F911FAB
:100460001BC0A701960119A28E010F5D1F4F8AE0E4
:10047000C82ED12CE12CF12CCA01B901A70196019B
:1004800049D3605DF80162938F0121153105410563
:10049000510591F7CF018BDFA1960FB6F894DEBF1F
:1004A0000FBECDBFDF91CF911F910F91FF90EF90C5
:1004B000DF90CF90BF90AF909F908F900895CF9393
:1004C000DF93EC0160E08E8166DE61E08E8163DEA9
:1004D00060E08E8160DE83E190E00197F1F7DF91CB
:1004E000CF910895CF92DF92EF92FF920F931F93D7
:1004F000CF93DF937C016C0187E0C80ED11CC0E074
:10050000D0E0062F10E0B8010C2E02C0759567955B
:100510000A94E2F76170F60181916F013CDE219649
:10052000C430D10581F7C701DF91CF911F910F91A1
:10053000FF90EF90DF90CF90C2CFCF92DF92EF92FB
:10054000FF920F931F93CF93DF93EC01F62E642F4E
:100550008C8121DE8D818F3F11F060E01CDE8F8564
:100560000F2D10E084FF23C06E0187E0C80ED11C60
:10057000E12CF12CB8010E2C02C0759567950A94F8
:10058000E2F76170F60181916F0105DEFFEFEF1A6E
:10059000FF0A88E0E816F10469F7CE01DF91CF91F8
:1005A0001F910F91FF90EF90DF90CF9088CFB8010F
:1005B00084E0759567958A95E1F7CE0193DF6F2DFD
:1005C000CE01DF91CF911F910F91FF90EF90DF90BF
:1005D000CF9088CF41E0B1DF81E090E0089540E026
:1005E000ACCFEF92FF920F931F93CF93DF93EC0169
:1005F000623018F08F8588608F876B8B1C8A80E44F
:100600008D8B80E18E8B80E58F8B61E08C81F2DDBC
:100610008D818F3F11F061E0EDDD61E08E81EADDDB
:100620007E0187E0E80EF11C00E010E08F8584FD7C
:1006300003C084E090E002C088E090E0081719074A
:1006400044F461E0F70181917F01D4DD0F5F1F4F1A
:10065000EDCF8EEC90E30197F1F760E08C819BDDAC
:1006600060E08E8198DD8D818F3F11F060E093DD39
:100670006F8564FD19C063E0CE0134DF0FE514E03F
:10068000C8010197F1F763E0CE012CDFC8010197A3
:10069000F1F763E0CE0126DF80E290E00197F1F709
:1006A00062E0CE011FDF13C06062CE0198DF8FE5EC
:1006B00094E00197F1F76F856062CE0190DF80E2F0
:1006C00090E00197F1F76F856062CE0188DF6F855A
:1006D0006062CE0184DF84E0888B6CE0CE017FDF36
:1006E00061E0CE017CDF8EEE91E00197F1F782E0D0
:1006F000898B66E0CE01DF91CF911F910F91FF9022
:10070000EF906DCF643008F063E09091C6006917F8
:1007100010F06FEF690FE62FF0E0ED54FF4F948972
:10072000682F690F606883EB90E059CF31D21F9238
:100730000F920FB60F9211242F933F938F939F9395
:10074000AF93BF9380919F009091A000A091A100D2
:10075000B091A20030919E0029E3230F2D3720F4A1
:100760000596A11DB11D05C02CEB230F0696A11DFA
:10077000B11D20939E0080939F009093A000A093B2
:10078000A100B093A2008091A3009091A400A09139
:10079000A500B091A6000196A11DB11D8093A300F4
:1007A0009093A400A093A500B093A600BF91AF9131
:1007B0009F918F913F912F910F900FBE0F901F909F
:1007C0001895789483B7826083BF83B7816083BFB5
:1007D00089B7816089BF1EBC8EB582608EBD8FB522
:1007E00081608FBD85B5846085BD85B5806485BD1C
:1007F000329A31983098379A1AB862E083EB90E0D9
:10080000F0DE68EE73E080E090E099DD8AE690E04B
:10081000CEDD61E08AE0EEDC61E089E0EBDC61E006
:100820008BE0E8DC6FEF70E08BE020DD6FEF70E0D5
:100830008AE01CDD6FEF70E089E018DD61E081E1A6
:10084000D9DC61E083E1D6DC61E082E1D3DC62E007
:100850008CE0D0DC62E08DE0CDDC61E083E19BDC0C
:1008600064EF71E080E090E06ADD60E083E193DCBA
:1008700061E082E190DC64EF71E080E090E05FDDB8
:1008800060E082E188DC61E081E185DC64EF71E0B9
:1008900080E090E054DD60E081E17DDC61E083E1B7
:1008A0007ADC61E082E177DC61E081E174DC68E8B8
:1008B00073E180E090E043DD60E083E16CDC60E0C8
:1008C00082E169DC60E081E166DC8CE03CDC892B64
:1008D00009F4FBC08DE037DC892B09F4F6C068E829
:1008E00073E180E090E02BDD609160007091610029
:1008F0008BE0BCDC00E010E0EE24EA94F12C8CE00C
:1009000022DC9093B2008093B100892BB1F48091E6
:10091000600090916100059797FD05C0909361007C
:100920008093600004C0109261001092600060919A
:100930006000709161008BE099DC8DE004DC9093A5
:10094000B2008093B100892BC1F480916000909136
:10095000610005968F3F910509F02CF4909361009A
:100960008093600004C0F0926100E09260006091AA
:100970006000709161008BE079DC81E0AFDC97FD75
:10098000039695958795959587959195819591096C
:10099000EC01C150DF4FD093B000C093AF0080E0B6
:1009A0009DDC97FD03966C01D594C794D594C794AC
:1009B000D092AE00C092AD00A090AB00B090AC0061
:1009C00061E0A114B10411F481E101C083E1E3DB32
:1009D00060E082E1E0DBCE018C199D09AB2879F45F
:1009E0009093AA008093A900D093A800C093A70079
:1009F00097FF16C01092AA001092A9000EC0909303
:100A0000A8008093A700D093AA00C093A90097FFE5
:100A100007C01092A8001092A70061E082E1BBDB42
:100A20006091A9007091AA008AE020DC6091A70083
:100A30007091A80089E01ADC60E080E063DE81E765
:100A400090E0B5DC60E080E05DDE80916000909138
:100A50006100BEDC60E083E055DE8091AB009091E8
:100A6000AC00892B19F482E890E002C080E990E0A4
:100A70009EDC61E080E046DE81E790E098DC61E0AA
:100A800080E040DE8091AF009091B000A1DC61E099
:100A900084E038DE8091AD009091AE0099DC61E099
:100AA00088E030DE8091A9009091AA0091DC61E09D
:100AB0008CE028DE8091A7009091A80089DC0115C8
:100AC000110509F41CCF9CDA1ACF81E090E09093D5
:100AD000AC008093AB0003CFE3EBF0E01382128213
:100AE00086E690E09183808382E084838FEF858324
:100AF00083E0868384E0878385E0808786E0818742
:100B000087E082871386148615861686178661E02D
:100B1000CF0167CDA1E21A2EAA1BBB1BFD010DC0A0
:100B2000AA1FBB1FEE1FFF1FA217B307E407F5079D
:100B300020F0A21BB30BE40BF50B661F771F881F79
:100B4000991F1A9469F760957095809590959B010F
:100B5000AC01BD01CF0108950FD0A59F900DB49FAA
:100B6000900DA49F800D911D11240895EE0FFF1F7D
:100B70000590F491E02D0994A29FB001B39FC001AC
:100B8000A39F01D0B29F700D811D1124911D089566
:0C0B900081E090E0F89400C0F894FFCFE2
:100B9C00820000000000EA0267007463686F202185
:100BAC000020202020202020202020202020202059
:100BBC0020002053205220544F50206261636B0060
:0E0BCC002053205220746F70204241434B0092
:00000001FF
