:100000003AC049C048C047C046C045C044C043C0CC
:1000100042C037C140C03FC03EC03DC03CC03BC0F5
:100020003AC039C038C000000000000000000003E2
:10003000040600000000000000000000000038007E
:1000400035003200000000003700340031000404A5
:100050000404040404040202020202020303030370
:10006000030301020408102040800102040810204C
:1000700001020408102011241FBECFE5D4E0DEBF2A
:10008000CDBF20E0A0E6B0E001C01D92AD36B207C2
:10009000E1F741D145C2B4CF90E0FC01EE59FF4FEA
:1000A0002491FC01E25BFF4F8491882399F090E05A
:1000B000880F991FFC01EC5BFF4FA591B491FC01E7
:1000C000E65CFF4F859194918FB7F894EC91E22B09
:1000D000EC938FBF089590E0FC01EA5DFF4F3491EF
:1000E000FC01EE59FF4F2491FC01E25BFF4FE491CC
:1000F000EE2331F1332381F0343039F0363049F0DA
:10010000333051F48FB58F7702C08FB58F7D8FBD9F
:1001100003C085B58F7D85BDF0E0EE0FFF1FE65C67
:10012000FF4FA591B4918FB7F894611105C09C91D0
:10013000E22FE095E92302C0EC91E22BEC938FBF14
:1001400008951F93CF93DF93182FEB01A5DF20971E
:1001500011F460E004C0CF3FD10531F461E0812F9C
:10016000DF91CF911F91B7CFE12FF0E0EA5DFF4F14
:10017000E491E43051F0E63071F0E33089F48FB56A
:1001800080688FBDDBBDCABD0FC08FB580628FBDDB
:10019000D9BDC8BD09C085B5806285BDC3BD04C0D9
:1001A000C038D105DCF6D5CFDF91CF911F910895EE
:1001B0008E3008F08E508770806487B9369A3699F1
:1001C000FECF84B125B190E0922B08959FB7F894AB
:1001D00040916500509166006091670070916800E1
:1001E00082B708B600FE06C08F3F21F04F5F5F4F19
:1001F0006F4F7F4F9FBF762F652F542F44279A0153
:10020000AB01280F311D411D511DA5E1B0E072D198
:1002100008958F929F92AF92BF92CF92DF92EF920A
:10022000FF926B017C01D2DF4B015C01C114D10450
:10023000E104F104E9F0CADFDC01CB018819990976
:10024000AA09BB09883E9340A105B10578F321E0D6
:10025000C21AD108E108F10888EE880E83E0981EE2
:10026000A11CB11CC114D104E104F10421F7DECFBB
:10027000FF90EF90DF90CF90BF90AF909F908F90C6
:1002800008951F920F920FB60F9211242F933F9350
:100290008F939F93AF93BF93809161009091620081
:1002A000A0916300B09164003091600029E3230FB6
:1002B0002D3720F40596A11DB11D05C02CEB230F91
:1002C0000696A11DB11D209360008093610090935C
:1002D0006200A0936300B0936400809165009091E8
:1002E0006600A0916700B09168000196A11DB11D44
:1002F0008093650090936600A0936700B0936800B8
:10030000BF91AF919F918F913F912F910F900FBE11
:100310000F901F901895789483B7826083BF83B73E
:10032000816083BF89B7816089BF1EBC8EB5826042
:100330008EBD8FB581608FBD85B5846085BD85B567
:10034000806485BD329A31983098379A1AB889E01E
:10035000A3DE8AE0A1DE81E19FDE83E19DDE82E112
:100360009BDE61E083E1B7DE68EC70E080E090E066
:1003700050DF60E083E1AFDE61E082E1ACDE68EC9B
:1003800070E080E090E045DF60E082E1A4DE61E0C3
:1003900081E1A1DE68EC70E080E090E03ADF60E0AF
:1003A00081E199DE60E070E089E0CBDE60E070E042
:1003B0008AE0C7DE61E083E18EDE61E082E18BDE10
:1003C00061E081E188DE68E873E180E090E021DFB0
:1003D00060E083E180DE60E082E17DDE60E081E17B
:1003E0007ADE20E0E22E20E0F22E0FEF10E081E036
:1003F000DFDE97FD03966C01D594C794D594C7941E
:10040000D0926C00C0926B0080E0D2DE97FD039624
:10041000EC01D595C795D595C795D0936A00C09343
:10042000690082E3C816D10424F461E083E153DE5D
:1004300009C060E083E14FDE89ECC816D10414F0F6
:1004400061E001C060E082E146DECE01895791099A
:100450000D9710F461E001C060E081E13CDECF5710
:10046000D109D0936A00C0936900CC1ADD0AD7FC89
:1004700005C0D0926C00C0926B0004C010926C005A
:1004800010926B0080916B0090916C008F3F9105F2
:1004900029F024F010936C0000936B00C0906B0067
:1004A000D0906C00B60189E04CDECC0DDD1DD7FD8F
:1004B00005C0D0936C00C0936B0004C010926C0018
:1004C00010926B0080916B0090916C008F3F9105B2
:1004D00029F024F010936C0000936B0060916B0086
:1004E00070916C008AE02DDEE114F10409F47FCFF5
:1004F00087DD7DCF09D0A59F900DB49F900DA49F5F
:10050000800D911D11240895A29FB001B39FC001D9
:10051000A39F01D0B29F700D811D1124911D0895DC
:04052000F894FFCF7D
:00000001FF
